{
    "contractName": "Ballot",
    "abi": [
        {
            "inputs": [
                {
                    "internalType": "bytes32[]",
                    "name": "proposalNames",
                    "type": "bytes32[]"
                },
                {
                    "internalType": "address[]",
                    "name": "parties",
                    "type": "address[]"
                }
            ],
            "stateMutability": "nonpayable",
            "type": "constructor"
        },
        {
            "inputs": [
                {
                    "internalType": "uint256",
                    "name": "",
                    "type": "uint256"
                }
            ],
            "name": "candidates",
            "outputs": [
                {
                    "internalType": "bytes32",
                    "name": "name",
                    "type": "bytes32"
                },
                {
                    "internalType": "uint256",
                    "name": "voteCount",
                    "type": "uint256"
                }
            ],
            "stateMutability": "view",
            "type": "function"
        },
        {
            "inputs": [
                {
                    "internalType": "address",
                    "name": "to",
                    "type": "address"
                }
            ],
            "name": "delegate",
            "outputs": [],
            "stateMutability": "nonpayable",
            "type": "function"
        },
        {
            "inputs": [],
            "name": "getCandidateRanking",
            "outputs": [
                {
                    "internalType": "bytes32[]",
                    "name": "candidateNames",
                    "type": "bytes32[]"
                },
                {
                    "internalType": "uint256[]",
                    "name": "voteCounts",
                    "type": "uint256[]"
                }
            ],
            "stateMutability": "view",
            "type": "function"
        },
        {
            "inputs": [],
            "name": "getCandidates",
            "outputs": [
                {
                    "internalType": "bytes32[]",
                    "name": "candidateNames",
                    "type": "bytes32[]"
                },
                {
                    "internalType": "uint256[]",
                    "name": "voteCounts",
                    "type": "uint256[]"
                }
            ],
            "stateMutability": "view",
            "type": "function"
        },
        {
            "inputs": [],
            "name": "getParties",
            "outputs": [
                {
                    "internalType": "address[]",
                    "name": "parties",
                    "type": "address[]"
                }
            ],
            "stateMutability": "view",
            "type": "function"
        },
        {
            "inputs": [
                {
                    "internalType": "address",
                    "name": "voter",
                    "type": "address"
                }
            ],
            "name": "getVoterDetails",
            "outputs": [
                {
                    "internalType": "bool",
                    "name": "voted_",
                    "type": "bool"
                },
                {
                    "internalType": "address",
                    "name": "delegate_",
                    "type": "address"
                },
                {
                    "internalType": "uint256",
                    "name": "vote_",
                    "type": "uint256"
                },
                {
                    "internalType": "address[]",
                    "name": "authorizedBy",
                    "type": "address[]"
                },
                {
                    "internalType": "uint256",
                    "name": "weight_",
                    "type": "uint256"
                }
            ],
            "stateMutability": "view",
            "type": "function"
        },
        {
            "inputs": [
                {
                    "internalType": "address",
                    "name": "voter",
                    "type": "address"
                }
            ],
            "name": "giveRightToVote",
            "outputs": [],
            "stateMutability": "nonpayable",
            "type": "function"
        },
        {
            "inputs": [
                {
                    "internalType": "uint256",
                    "name": "",
                    "type": "uint256"
                }
            ],
            "name": "poolParties",
            "outputs": [
                {
                    "internalType": "address",
                    "name": "",
                    "type": "address"
                }
            ],
            "stateMutability": "view",
            "type": "function"
        },
        {
            "inputs": [
                {
                    "internalType": "uint256",
                    "name": "candidate",
                    "type": "uint256"
                }
            ],
            "name": "vote",
            "outputs": [],
            "stateMutability": "nonpayable",
            "type": "function"
        },
        {
            "inputs": [
                {
                    "internalType": "address",
                    "name": "",
                    "type": "address"
                }
            ],
            "name": "voters",
            "outputs": [
                {
                    "internalType": "bool",
                    "name": "voted",
                    "type": "bool"
                },
                {
                    "internalType": "address",
                    "name": "delegate",
                    "type": "address"
                },
                {
                    "internalType": "uint256",
                    "name": "vote",
                    "type": "uint256"
                },
                {
                    "internalType": "uint256",
                    "name": "weight",
                    "type": "uint256"
                }
            ],
            "stateMutability": "view",
            "type": "function"
        },
        {
            "inputs": [],
            "name": "winningProposal",
            "outputs": [
                {
                    "internalType": "uint256",
                    "name": "winningProposal_",
                    "type": "uint256"
                },
                {
                    "internalType": "uint256",
                    "name": "totalVotes",
                    "type": "uint256"
                }
            ],
            "stateMutability": "view",
            "type": "function"
        }
    ],
    "bytecode": "60806040523480156200001157600080fd5b506040516200134538038062001345833981016040819052620000349162000364565b805162000049906000906020840190620001ea565b5060005b600054811015620001635760005b6000548110156200010b57600160008084815481106200007f576200007f6200042b565b60009182526020808320909101546001600160a01b031683528201929092526040018120815490919083908110620000bb57620000bb6200042b565b60009182526020808320909101548354600181018555938352912090910180546001600160a01b0319166001600160a01b0390921691909117905580620001028162000441565b9150506200005b565b5060018060008084815481106200012657620001266200042b565b60009182526020808320909101546001600160a01b03168352820192909252604001902060030155806200015a8162000441565b9150506200004d565b5060005b8251811015620001e157600260405180604001604052808584815181106200019357620001936200042b565b60209081029190910181015182526000918101829052835460018181018655948352918190208351600290930201918255919091015191015580620001d88162000441565b91505062000167565b50505062000469565b82805482825590600052602060002090810192821562000242579160200282015b828111156200024257825182546001600160a01b0319166001600160a01b039091161782556020909201916001909101906200020b565b506200025092915062000254565b5090565b5b8082111562000250576000815560010162000255565b634e487b7160e01b600052604160045260246000fd5b604051601f8201601f191681016001600160401b0381118282101715620002ac57620002ac6200026b565b604052919050565b60006001600160401b03821115620002d057620002d06200026b565b5060051b60200190565b600082601f830112620002ec57600080fd5b8151602062000305620002ff83620002b4565b62000281565b82815260059290921b840181019181810190868411156200032557600080fd5b8286015b84811015620003595780516001600160a01b03811681146200034b5760008081fd5b835291830191830162000329565b509695505050505050565b600080604083850312156200037857600080fd5b82516001600160401b03808211156200039057600080fd5b818501915085601f830112620003a557600080fd5b81516020620003b8620002ff83620002b4565b82815260059290921b84018101918181019089841115620003d857600080fd5b948201945b83861015620003f857855182529482019490820190620003dd565b918801519196509093505050808211156200041257600080fd5b506200042185828601620002da565b9150509250929050565b634e487b7160e01b600052603260045260246000fd5b6000600182016200046257634e487b7160e01b600052601160045260246000fd5b5060010190565b610ecc80620004796000396000f3fe608060405234801561001057600080fd5b50600436106100a95760003560e01c8063609ff1bd11610071578063609ff1bd146101485780639e7b8d6114610150578063a3ec138d14610163578063a8311aa8146101d4578063ba71bef0146101e9578063da246bd21461020d57600080fd5b80630121b93f146100ae57806306a49fce146100c35780633477ee2e146100e257806337abe7161461010a5780635c19a95c14610135575b600080fd5b6100c16100bc366004610cb3565b610215565b005b6100cb610312565b6040516100d9929190610ccc565b60405180910390f35b6100f56100f0366004610cb3565b61044c565b604080519283526020830191909152016100d9565b61011d610118366004610cb3565b61047a565b6040516001600160a01b0390911681526020016100d9565b6100c1610143366004610d47565b6104a4565b6100f56106a9565b6100c161015e366004610d47565b610726565b6101aa610171366004610d47565b600160208190526000918252604090912090810154600282015460039092015460ff8216926101009092046001600160a01b0316919084565b6040805194151585526001600160a01b0390931660208501529183015260608201526080016100d9565b6101dc6109a4565b6040516100d99190610dbb565b6101fc6101f7366004610d47565b610a06565b6040516100d9959493929190610dce565b6100cb610afa565b33600090815260016020526040812090548154146102715760405162461bcd60e51b8152602060048201526014602482015273486173206e6f20726967687420746f20766f746560601b60448201526064015b60405180910390fd5b600181015460ff16156102b75760405162461bcd60e51b815260206004820152600e60248201526d20b63932b0b23c903b37ba32b21760911b6044820152606401610268565b6001818101805460ff19169091179055600280820183905560038201548154909190849081106102e9576102e9610e0f565b906000526020600020906002020160010160008282546103099190610e3b565b90915550505050565b60025460609081908067ffffffffffffffff81111561033357610333610e54565b60405190808252806020026020018201604052801561035c578160200160208202803683370190505b5092508067ffffffffffffffff81111561037857610378610e54565b6040519080825280602002602001820160405280156103a1578160200160208202803683370190505b50915060005b8181101561044657600281815481106103c2576103c2610e0f565b9060005260206000209060020201600001548482815181106103e6576103e6610e0f565b6020026020010181815250506002818154811061040557610405610e0f565b90600052602060002090600202016001015483828151811061042957610429610e0f565b60209081029190910101528061043e81610e6a565b9150506103a7565b50509091565b6002818154811061045c57600080fd5b60009182526020909120600290910201805460019091015490915082565b6000818154811061048a57600080fd5b6000918252602090912001546001600160a01b0316905081565b3360009081526001602081905260409091209081015460ff16156104ff5760405162461bcd60e51b81526020600482015260126024820152712cb7ba9030b63932b0b23c903b37ba32b21760711b6044820152606401610268565b336001600160a01b038316036105575760405162461bcd60e51b815260206004820152601e60248201527f53656c662d64656c65676174696f6e20697320646973616c6c6f7765642e00006044820152606401610268565b6001600160a01b0382811660009081526001602081905260409091200154610100900416156105fb576001600160a01b03918216600090815260016020819052604090912001546101009004909116903382036105f65760405162461bcd60e51b815260206004820152601960248201527f466f756e64206c6f6f7020696e2064656c65676174696f6e2e000000000000006044820152606401610268565b610557565b600181810180546001600160a81b0319166101006001600160a01b03861690810291909117831790915560009081526020829052604090209081015460ff1615610686578160030154600282600201548154811061065b5761065b610e0f565b9060005260206000209060020201600101600082825461067b9190610e3b565b909155506106a49050565b816003015481600301600082825461069e9190610e3b565b90915550505b505050565b6000806000805b6002548110156104465781600282815481106106ce576106ce610e0f565b906000526020600020906002020160010154111561071457600281815481106106f9576106f9610e0f565b90600052602060002090600202016001015491508093508192505b8061071e81610e6a565b9150506106b0565b806000805b60005481101561078357336001600160a01b03166000828154811061075257610752610e0f565b6000918252602090912001546001600160a01b03160361077157600191505b8061077b81610e6a565b91505061072b565b50806107e25760405162461bcd60e51b815260206004820152602860248201527f4f6e6c79206368616972706572736f6e2063616e2067697665207269676874206044820152673a37903b37ba329760c11b6064820152608401610268565b6000805b6001600160a01b038416600090815260016020526040902054811015610864576001600160a01b038416600090815260016020526040902080543391908390811061083357610833610e0f565b6000918252602090912001546001600160a01b03160361085257600191505b8061085c81610e6a565b9150506107e6565b5080156108c85760405162461bcd60e51b815260206004820152602c60248201527f796f75206861766520616c726561647920417574686f72697a656420766f746560448201526b722e205468616e6b20796f7560a01b6064820152608401610268565b6001600160a01b0384166000908152600160208190526040909120015460ff16156109355760405162461bcd60e51b815260206004820152601860248201527f54686520766f74657220616c726561647920766f7465642e00000000000000006044820152606401610268565b6001600160a01b038416600081815260016020818152604083208054928301815580845290832090910180546001600160a01b031916331790558154929091525414801561099d576001600160a01b0385166000908152600160208190526040909120600301555b5050505050565b606060008054806020026020016040519081016040528092919081815260200182805480156109fc57602002820191906000526020600020905b81546001600160a01b031681526001909101906020018083116109de575b5050505050905090565b6001600160a01b03811660009081526001602090815260408083208151815460c09481028201850190935260a081018381528594859460609486948594909391928492849190840182828015610a8557602002820191906000526020600020905b81546001600160a01b03168152600190910190602001808311610a67575b5050509183525050600182015460ff811615156020808401919091526101009091046001600160a01b0316604080840191909152600284015460608085019190915260039094015460809384015290840151908401519284015184519490920151909b929a5090985091965090945092505050565b606080610b05610312565b8151919350915060005b610b1a600183610e83565b8110156104465760005b6001610b308385610e83565b610b3a9190610e83565b811015610ca05783610b4d826001610e3b565b81518110610b5d57610b5d610e0f565b6020026020010151848281518110610b7757610b77610e0f565b60200260200101511015610c8e5783610b91826001610e3b565b81518110610ba157610ba1610e0f565b6020026020010151848281518110610bbb57610bbb610e0f565b6020026020010151858381518110610bd557610bd5610e0f565b6020026020010186846001610bea9190610e3b565b81518110610bfa57610bfa610e0f565b60209081029190910101919091525284610c15826001610e3b565b81518110610c2557610c25610e0f565b6020026020010151858281518110610c3f57610c3f610e0f565b6020026020010151868381518110610c5957610c59610e0f565b6020026020010187846001610c6e9190610e3b565b81518110610c7e57610c7e610e0f565b6020908102919091010191909152525b80610c9881610e6a565b915050610b24565b5080610cab81610e6a565b915050610b0f565b600060208284031215610cc557600080fd5b5035919050565b604080825283519082018190526000906020906060840190828701845b82811015610d0557815184529284019290840190600101610ce9565b5050508381038285015284518082528583019183019060005b81811015610d3a57835183529284019291840191600101610d1e565b5090979650505050505050565b600060208284031215610d5957600080fd5b81356001600160a01b0381168114610d7057600080fd5b9392505050565b600081518084526020808501945080840160005b83811015610db05781516001600160a01b031687529582019590820190600101610d8b565b509495945050505050565b602081526000610d706020830184610d77565b851515815260018060a01b038516602082015283604082015260a060608201526000610dfd60a0830185610d77565b90508260808301529695505050505050565b634e487b7160e01b600052603260045260246000fd5b634e487b7160e01b600052601160045260246000fd5b80820180821115610e4e57610e4e610e25565b92915050565b634e487b7160e01b600052604160045260246000fd5b600060018201610e7c57610e7c610e25565b5060010190565b81810381811115610e4e57610e4e610e2556fea264697066735822122077867725d69b7e3204d58618f5b0b2a3bcf264d14b7d0d22599e303e8555cfdf64736f6c63430008130033",
    "sourcePath": "c:/Users/MAN CODED/Desktop/projects/the-voter/core/contracts/Ballot.sol",
    "compiler": {
        "name": "solc",
        "version": "0.8.19+commit.7dd6d404"
    },
    "functionHashes": {
        "candidates(uint256)": "3477ee2e",
        "delegate(address)": "5c19a95c",
        "getCandidateRanking()": "da246bd2",
        "getCandidates()": "06a49fce",
        "getParties()": "a8311aa8",
        "getVoterDetails(address)": "ba71bef0",
        "giveRightToVote(address)": "9e7b8d61",
        "poolParties(uint256)": "37abe716",
        "vote(uint256)": "0121b93f",
        "voters(address)": "a3ec138d",
        "winningProposal()": "609ff1bd"
    },
    "gasEstimates": {
        "creation": {
            "codeDepositCost": "757600",
            "executionCost": "infinite",
            "totalCost": "infinite"
        },
        "external": {
            "candidates(uint256)": "6776",
            "delegate(address)": "infinite",
            "getCandidateRanking()": "infinite",
            "getCandidates()": "infinite",
            "getParties()": "infinite",
            "getVoterDetails(address)": "infinite",
            "giveRightToVote(address)": "infinite",
            "poolParties(uint256)": "4681",
            "vote(uint256)": "81618",
            "voters(address)": "6895",
            "winningProposal()": "infinite"
        }
    }
}